:100000000A128A11D32FFF1B0D2883137F18831721
:100010000008840A0319FF0A080000308A00040857
:10002000840A820700344634693472347334743479
:100030002034703472346534733473342034533460
:100040005434413452345434003443344F344E34F5
:10005000473452344134543455344C34413454349C
:1000600049344F344E3453342134003447346134EE
:100070006D346534203463346F346D3470346C34D3
:1000800065347434653464342E3400345434683444
:10009000653420344D3465346D346F3472347934C2
:1000A0002034473461346D34653400344E34453483
:1000B000573420345234453443344F34523444346A
:1000C0002134003450347234653473347334203442
:1000D0005334543441345234543400344734753436
:1000E00065347334733420346E346F347734213490
:1000F00000344E3465347834743420346C346534D0
:10010000763465346C34003443344F3452345234D2
:1001100045344334543421340034533463346F341D
:10012000723465343A342034003420344C3465342D
:10013000763465346C343A340034573452344F34A6
:100140004E344734213400344534523452344F3421
:10015000523421340034533463346F347234653490
:100160003A34003448346934673468343A340034FB
:100170002534753400340030FC000030FB000030C2
:10018000FA000030F900701CC628C728DE28740861
:10019000F907750803110318013E0319D028FA075F
:1001A000760803110318013E0319D728FB077708C7
:1001B00003110318013E0319DE28FC070130F80083
:1001C0000310F40DF50DF60DF70DF80BE0280130D6
:1001D0000310F30CF20CF10CF00CFF3E031DE828A9
:1001E0007308720471047004031DF728F828C328EB
:1001F0007C08F3007B08F2007A08F1007908F0002F
:1002000008000A128A15E1250A128A11F601F60A77
:1002100001300A128A15F1250A128A119930F60066
:100220008030F7000A128A15DE260A128A1183121C
:1002300003135D08C2005C08C1000A128A15362645
:100240000A128A118330F6008030F7000A128A15EC
:10025000DE260A128A11831203136708C200660899
:10026000C1000A128A1536260A128A11F601F60A08
:1002700002300A128A15F1250A128A11A030F600FE
:100280008030F7000A128A15DE260A128A118312BC
:1002900003135908C2005808C1000A128A153626ED
:1002A0000A128A11080083120313DF010A128A1549
:1002B000E1250A128A11F601F60A01300A128A159E
:1002C000F1250A128A113430F6008030F7000A1244
:1002D0008A15DE260A128A11F601F60A02300A127F
:1002E0008A15F1250A128A115030F6008030F70085
:1002F0000A128A15DE260A128A1192290A128A1116
:10030000B0210A128A11003A0319872988298929FC
:1003100098293230F0000030F1000A128A151D26AB
:100320000A128A1183120313061A972998297E2923
:1003300083120313061A9D299E295629061EA129F8
:10034000A2299E29C830F0000030F1000A128A1557
:100350001D260A128A11013083120313DF000800E0
:10036000831203135F08031DB629B729142A061C3C
:10037000BA29BB29C729861CBE29BF29C729061D42
:10038000C229C329C7298619C629C729142A0A12CE
:100390008A15E1250A128A11F601F60A01300A12BD
:1003A0008A15F1250A128A119230F6008030F70082
:1003B0000A128A15DE260A128A11F601F60A02309E
:1003C0000A128A15F1250A128A110130F6008030CE
:1003D000F7000A128A15DE260A128A11D030F000C0
:1003E0000730F1000A128A151D260A128A1183129B
:1003F0000313061CFC29FD29F729861C002A012A63
:10040000F729061D042A052AF729861D082A092A24
:10041000F729C830F0000030F1000A128A151D26B5
:100420000A128A110130152A0030080083120313C2
:100430005D085902031D1E2A5C0858020318212A70
:10044000222A802A5D08D9005C08D80001305902B0
:1004500000300319580203182E2A2F2A372A580869
:10046000CD00CE014D08CF004E08D0003B2AFF3012
:10047000CF000030D0004F08D1005108F00000300C
:100480000A128A1505260A128A110A128A15E1250E
:100490000A128A11F601F60A01300A128A15F125AC
:1004A0000A128A114430F6008030F7000A128A15C9
:1004B000DE260A128A11F601F60A02300A128A159D
:1004C000F1250A128A117B30F6008030F7000A12FB
:1004D0008A15DE260A128A11831203135908C200F4
:1004E0005808C1000A128A1536260A128A11D0301D
:1004F000F0000730F1000A128A151D260A128A112F
:100500000800F601F701E42A08146508F100640800
:10051000F0000A128A151D260A128A11831203138B
:100520000810CE2A88146508F1006408F0000A1249
:100530008A151D260A128A11831203138810CE2AE7
:1005400008156508F1006408F0000A128A151D26D6
:100550000A128A11831203130811CE2A881565081E
:10056000F1006408F0000A128A151D260A128A1189
:10057000831203138811CE2A7608C03E84008313A9
:100580000008013A0319842A033A0319922A013A0E
:100590000319A02A073A0319AE2ACE2A6508F500E6
:1005A0006408F4000310F50CF40C7408F0007508EE
:1005B000F1000A128A151D260A128A110130F60767
:1005C0000318F70A0030F70783120313670877024E
:1005D000031DEC2A66087602031CEF2AF02ABC2AC7
:1005E0000800720873040319F62AF72AFD2A720814
:1005F0007304031DFC2AFD2A042B70080A128A15B5
:10060000AC250A128A118A2B7208093EF40073087D
:100610000318013E003EF500740884008317751C22
:1006200083130008F600840A0008F70076087704B0
:1006300003191B2B1C2B4E2B7208093EF400730868
:100640000318013E003EF500740884008317751CF2
:1006500083130008F600840A0008F7007208023EBF
:10066000F80073080318013E003EF9007808840082
:100670008317791C83130008FA00840A0008FB0022
:100680007B08803AFC007708803A7C02031D4A2BE5
:1006900076087A0203184D2B4E2B8A2B72088400A1
:1006A0008317731C83130008F400840A0008F50004
:1006B0007208023EF60073080318013E003EF70080
:1006C000760884008317771C831300087407F900E9
:1006D0007508F8000318F80A801F6F2BF8037808D4
:1006E000FA007908840083177A1C8313700880004D
:1006F0007208023EF40073080318013E003EF50044
:10070000740884008317751C831301308007840AE2
:100710000318800A0800F5008312031307107508F8
:10072000F40004300310F40CFF3E031D922B7418E8
:100730009A2B9E2B831203130715A12B83120313ED
:1007400007117508F40005300310F40CFF3E031D7B
:10075000A42B7418AC2BB02B831203138715B32B67
:100760008312031387117508F40006300310F40C8C
:10077000FF3E031DB62B7418BE2BC22B831203132E
:100780000716C52B8312031307127508F4000730F0
:100790000310F40CFF3E031DC82B7418D02BD42B70
:1007A000831203138716D72B831203138712871420
:1007B0000130F0000030F1000A128A151D260A12DD
:1007C0008A118312031387100230F0000030F10009
:1007D0000A128A151D260A128A117518F02BF42B9D
:1007E000831203130715F72B8312031307117508E0
:1007F000F40001300310F40CFF3E031DFA2B7418B3
:10080000022C062C831203138715092C8312031361
:1008100087117508F40002300310F40CFF3E031D2D
:100820000C2C7418142C182C8312031307161B2C71
:100830008312031307127508F40003300310F40C3D
:10084000FF3E031D1E2C7418262C2A2C8312031322
:1008500087162D2C83120313871287140130F000A2
:100860000030F1000A128A151D260A128A1183121D
:10087000031387100230F0000030F1000A128A15CD
:100880001D260A128A110800F500831203130714AB
:100890007508F40004300310F40CFF3E031D4B2CCC
:1008A0007418532C572C8312031307155A2C8312D8
:1008B000031307117508F40005300310F40CFF3E14
:1008C000031D5D2C7418652C692C83120313871586
:1008D0006C2C8312031387117508F4000630031083
:1008E000F40CFF3E031D6F2C7418772C7B2C8312A5
:1008F000031307167E2C8312031307127508F400E6
:1009000007300310F40CFF3E031D812C7418892C52
:100910008D2C831203138716902C831203138712D6
:1009200087140130F0000030F1000A128A151D26EC
:100930000A128A118312031387100230F00000306C
:10094000F1000A128A151D260A128A117518A92C9F
:10095000AD2C831203130715B02C83120313071158
:100960007508F40001300310F40CFF3E031DB32C96
:100970007418BB2CBF2C831203138715C22C83124F
:10098000031387117508F40002300310F40CFF3EC6
:10099000031DC52C7418CD2CD12C831203130716FC
:1009A000D42C8312031307127508F40003300310CC
:1009B000F40CFF3E031DD72C7418DF2CE32C83129C
:1009C00003138716E62C8312031387128714013052
:1009D000F0000030F1000A128A151D260A128A1151
:1009E0008312031387100230F0000030F1000A1266
:1009F0008A151D260A128A11080083120313DA01D0
:100A0000DB01A82D0618052D062D332D061C092DFA
:100A10000A2D062D0814C830F0000030F1000A122B
:100A20008A151D260A128A118312031308105B0807
:100A3000F5005A08F400DA0A0319DB0A7408C03E0C
:100A40008400831300030319262D272D292D003040
:100A5000BA2D6430F0000030F1000A128A151D260C
:100A60000A128A11A82D8618362D372D5A2D861C6C
:100A70003A2D3B2D372D8814C830F0000030F1009E
:100A80000A128A151D260A128A118312031388106E
:100A90005B08F5005A08F400DA0A0319DB0A740847
:100AA000C03E84000230831300060319582D592DCF
:100AB000292D272D06195D2D5E2D812D061D612DF9
:100AC000622D5E2D0815C830F0000030F1000A12CA
:100AD0008A151D260A128A118312031308115B0856
:100AE000F5005A08F400DA0A0319DB0A7408C03E5C
:100AF000840003308313000603197F2D802D292DD8
:100B0000272D8619842D852DA82D861D882D892DAC
:100B1000852D8815C830F0000030F1000A128A15C2
:100B20001D260A128A118312031388115B08F5002F
:100B30005A08F400DA0A0319DB0A7408C03E84007C
:100B40000430831300060319A62DA72D292D272D68
:100B50008312031367085B02031DB02D66085A0257
:100B60000318B32DB42DB92D5F030319B82DB92D7A
:100B7000022D0130080083120313220884000008AC
:100B800084000A128A110D200A128A11253A031DC7
:100B9000CA2DCB2D652E2208840001308007D40198
:100BA000D5010030DE00FF30D600FF30D70022082C
:100BB00084000008AA002A0884000A128A110D2065
:100BC0000A128A11753A031DE62DE72D5E2E2308C1
:100BD000840083130008FF00023080077F08840030
:100BE0000008A600840A0008A700220884002A083A
:100BF000013E8000532E2030AB000130AB022B08A9
:100C0000A03E84000A30F0000030F1002708F30015
:100C10002608F2000A128A1535270A128A1170086E
:100C2000303E831380000A30F0000030F100831260
:100C300003132708F3002608F2000A128A156D270D
:100C40000A128A11710883120313A7007008A60004
:100C50002608270403192D2E2E2E4C2E2B08031D9B
:100C6000322E332EFD2D4C2E2B08A03E84008313F4
:100C70000008A400A5012408F0002508F1002008C0
:100C8000F2002108F3000A128A11F1220A128A11D5
:100C9000013083120313AB0720302B06031D512EA6
:100CA000522E342E7E2E2A0884000A128A110D201C
:100CB0000A128A11753A0319FB2D5E2E8312031353
:100CC00022088400013080077E2E2208840000085C
:100CD00084000A128A110D200A128A11A400A501AB
:100CE0002408F0002508F1002008F2002108F30094
:100CF0000A128A11F1220A128A115E2E0800FF30B0
:100D00008316031386008801870183120313880169
:100D100083160313811706309F000A128A150427D1
:100D20000A128A110A128A15E1250A128A118312FF
:100D300003130108D200D3015208F0005308F10058
:100D40000A128A15C5250A128A110A128A154F2617
:100D50000A128A110A128A1153210A128A11C82F03
:100D60000A128A1101210A128A11E830F0000330B8
:100D7000F1000A128A151D260A128A110A128A1512
:100D800094260A128A110A128A1181220A128A11E1
:100D90002C30F0000130F1000A128A151D260A12CB
:100DA0008A110A128A15E1250A128A11F601F60A39
:100DB00001300A128A15F1250A128A115C30F600F8
:100DC0008030F7000A128A15DE260A128A11C23014
:100DD000F0000130F1000A128A151D260A128A114C
:100DE0000A128A11FD240A128A11003A0319F92EF7
:100DF000FA2E8C2F831203136608DC070318DD0A12
:100E00006708DD070130E6070318E70A0030E70747
:100E100000306502653003196402031C102F112F86
:100E2000172F3230E4020030031CE503E5020030E6
:100E300067020B3003196602031C1F2F202F5B2F44
:100E40000A128A15E1250A128A11F601F60A013002
:100E50000A128A15F1250A128A111330F600803021
:100E6000F7000A128A15DE260A128A11F601F60A1E
:100E700002300A128A15F1250A128A112430F6006E
:100E80008030F7000A128A15DE260A128A11B8305D
:100E9000F0000B30F1000A128A151D260A128A1181
:100EA0000A128A1116220A128A110A128A15D225EA
:100EB0000A128A11AA2E0A128A15E1250A128A112B
:100EC000F601F60A01300A128A15F1250A128A1172
:100ED0007230F6008030F7000A128A15DE260A12F8
:100EE0008A11F601F60A02300A128A15F1250A1251
:100EF0008A116730F6008030F7000A128A15DE2664
:100F00000A128A11E830F0000330F1000A128A1543
:100F10001D260A128A11C82F0A128A15E1250A1203
:100F20008A11F601F60A01300A128A15F1250A1211
:100F30008A118B30F6008030F7000A128A15DE26FF
:100F40000A128A11F601F60A02300A128A15F125F0
:100F50000A128A117B30F6008030F7000A128A15D7
:100F6000DE260A128A11831203135D08C2005C0890
:100F7000C1000A128A1536260A128A11D030F000F2
:100F80000730F1000A128A151D260A128A11502F05
:100F9000831203135F030319CE2FCF2FB02EAA2E77
:100FA0000A128A1100280A128A15AD250A128A111E
:100FB000E4000A128A15AE250A128A11E5000A1207
:100FC0008A15AF250A128A11E6000A128A15B02581
:100FD0000A128A11E7008313A0308400CA300A1273
:100FE0008A15B1250A128A115430840064300A121D
:100FF0008A15B1250A128A1183010A128A117F2EDD
:101B58000800F43401340134003464008001840A3C
:101B68000406031900340406B22DF000700883122D
:101B780003178D00831603170C14831203170C0820
:101B880008007008FF3E83120313E0007108031871
:101B9800013EFF3EE100E201E30108008312031366
:101BA800DC01DD010130E6000030E700F430E4003C
:101BB8000130E500DF018801080001300A128A11AE
:101BC8008B230A128A150230F0000030F1000A1245
:101BD8008A151D260A128A150800F7007703031DC7
:101BE800F62DF72DFB2D76087F3EF800FE2D7608A2
:101BF800BF3EF80078080A128A118B230A128A1548
:101C08000800F1007108831203178D0070088C001A
:101C1800831603178C130C158B1355308D00AA30BF
:101C28008D008C148B178C181A2E1B2E172E0C1146
:101C38000800272E0330F3009730F200F20B222E13
:101C4800F30B222E272E0130F0020030031CF10383
:101C5800F102700A031D342E710A031D342E352E2D
:101C68001E2E0800433083120313B000A630B100C3
:101C78004208B3004108B2000A128A1571260A12F6
:101C88008A154330F6000030F7000A128A15DE265E
:101C98000A128A15080000300A128A15B9250A1294
:101CA8008A15F400740A031D5A2E5B2E672E8312C0
:101CB8000313D801D901F00100300A128A1505264C
:101CC8000A128A15702E7408F200F3017208831242
:101CD8000313D8007308D9000800323083120313A5
:101CE800B5003008B6000030B700B801B901BF012F
:101CF800C0013630AC000030AD003108AE003530E0
:101D0800AF000A128A15B9260A128A15831203131C
:101D180038083007B40034088400831380010800B1
:101D280083120313A601A701AE2E2608C03E840025
:101D38000A128A15AF270A128A158312031320087C
:101D48000339013E831380000130A6070318A70A50
:101D58000030A70767082702031DB42E660826026D
:101D6800031CB72EB82E992E0800831203132E08D1
:101D7800FD00CD2E831203132C08A0002D08A1000E
:101D88007D30A2002F08A3000A128A11BB250A126F
:101D98008A157D0884000A128A110D200A128A15F4
:101DA800003A031DD82ED92EBE2E83120313AC0180
:101DB800AD010800F32E7708FF00760884000A12A8
:101DC8008A1103200A128A150A128A1144240A1257
:101DD8008A150130F6070318F70A0030F707770865
:101DE80083120313FF00760884000A128A11032065
:101DF8000A128A15003A031D022F032FDF2E08004E
:101E08001430F0000030F1000A128A151D260A125B
:101E18008A1502300A128A118B230A128A15283071
:101E28000A128A118B230A128A150C300A128A1197
:101E38008B230A128A1506300A128A118B230A127A
:101E48008A1501300A128A118B230A128A15023068
:101E5800F0000030F1000A128A151D260A128A15B0
:101E680008007008710403193A2F3B2F682F0130BE
:101E7800F400472F01300310F00DF10DFF3E031D54
:101E88003F2F0130F407F11F4A2F4B2F3E2F7108C7
:101E98007302031D512F70087202031C542F552F13
:101EA8005B2F7008F2027108031CF303F302013080
:101EB8000310F10CF00CFF3E031D5C2F0130F402FF
:101EC800031D672F682F4B2F7308F1007208F0006D
:101ED8000800F401F501700871040319742F752FB7
:101EE800AA2F0130F600812F01300310F00DF10DFB
:101EF800FF3E031D792F0130F607F11F842F852F30
:101F0800782F01300310F40DF50DFF3E031D862FC9
:101F180071087302031D922F70087202031C952F1B
:101F2800962F9D2F7008F2027108031CF303F30229
:101F3800741401300310F10CF00CFF3E031D9E2FAA
:101F48000130F602031DA92FAA2F852F7508F1006D
:101F58007408F0000800013083120313A200003057
:101F6800A3000030A4000030A5006308F300620855
:101F7800F2006108F1006008F0004C30F70095307D
:101F8800F6007F30F5002D30F4000A128A11BB20CC
:101F98000A128A15700883120313A207710803181E
:101FA800710FD72FD82FA30772080318720FDD2FD0
:101FB800DE2FA40773080318730AA5072508E30092
:101FC8002408E2002308E1002208E0006008A200DB
:101FD8006108A3006208A4006308A500113003107B
:101FE800A50CA40CA30CA20CFF3E031DF32F230881
:081FF800A1002208A00008006E
:02400E007A3FF7
:00000001FF
